:020000040000FA
:1000000000009E2801308316B800B9018316A001B4
:10001000A1010030A300B830A200A401083083166B
:100020008500831285018312851D78280030831690
:100030002102031D1D2801302002031C132800305B
:1000400083162102031D26280730200203181328D7
:1000500083162003A500003083128A0036308316F1
:100060002507031C352883128A0A82006E2864281B
:100070005A28502846283C280D3083128500B83075
:10008000FF000B30122283128501132815308312D2
:100090008500B830FF000B3012228312850113282F
:1000A000053083128500B830FF000B301222831216
:1000B00085011328113083128500B830FF000B3002
:1000C0001222831285011328013083128500B83073
:1000D000FF000B3012228312850113281030831287
:1000E0008500B830FF000B301222831285011328DF
:1000F0008312850183162208FE002308FF002408CE
:100100008721831638088316A500831639088316BD
:10011000A6000630FD000030FE002508FF0026087E
:100120003A218316A6007F08A500A50A0319A60A8E
:100130002508A0002608A100132808003C30FE0076
:100140000230FF00803000000000F12100000000BC
:1001500083120000A1007F08A0003E30A200023000
:10016000A300831200002008A4002108A500FF308E
:10017000A007031CA1032508240403193629043011
:100180002207A400A501A50D2308A5072408FE0049
:100190002508FF00803000000000F1210000000071
:1001A00083120000A7007F08A6002208FE00230893
:1001B000FF00803000000000F121000000008312E9
:1001C0000000A900A5007F08A400A80002302207B3
:1001D000A400A501A50D2308A5072408FE002508F5
:1001E000FF00803000000000F121000000008312B9
:1001F0000000A500AB007F08AA00A4008312000045
:100200002608AA002708AB00FF30A607031CA70397
:100210002B082A0403192F292808FE002908FF00AB
:10022000803000000000DE2100000000831200008A
:10023000AA0024088312031384008313831200008E
:10024000251883172A0883120313800083120000E5
:10025000A80A0319A90AA40A0319A50AFE28063048
:1002600083120000A2070318A30AB12800000000AF
:100270000228080083120000AD007F08AC007E0851
:10028000AF007D08AE00B001B101831200002F085D
:100290008039031D0130B2003208031D66290310A6
:1002A000AE0DAF0D2F082D02031D58292E082C026C
:1002B00003186029031083120000AF0CAE0C6629EE
:1002C00083120000B10A3108B000452983120000F2
:1002D0002F082D02031D6E292E082C02031C7829DD
:1002E000831200002E08AC022F08031C2F0FAD0252
:1002F000031083120000AF0CAE0C3008B100B00345
:100300003108031D66292C08FF002D0808008316FC
:10031000B1007F08B0007E08AF00FE003008FF008B
:100320003108F1218316B3007F08B200321CBE29C8
:100330000310330CB500320CB4003508FD0034084E
:10034000FC002F08FE003008FF003108CF21831683
:100350003408B6003508B70008303606B600B400D9
:10036000D0303706B500B700FD003608FC002F0876
:10037000FE003008FF003108CF21CE29031083167C
:10038000330CB500320CB4003508FD003408FC0015
:100390002F08FE003008FF003108CF210800003A86
:1003A0000319D32908007E08840083137F1883175C
:1003B0007C088000840A7D0880000800003A031948
:1003C000E529803A0319EC2900347E088400831360
:1003D0007F188317000808007F088A007E088200C3
:1003E0000800003A0319F929803A0319032AFF018A
:1003F00000347E08840083137F1883170008FF00F1
:10040000840A0008080000000000EC21FD00FE0F37
:10041000FF03FF0A00000000EC21FC007D08FF0044
:100420007C0808008316A8007F08A700A901AA017C
:10043000831628082A02031D1F2A270829020318E9
:100440003B2A8316AB010130AC00FF3083162B072B
:10045000AD00FF30AE002C0803182C0FAE072D089E
:10046000AB002E08AC002E082D04031D252AA90A76
:100470000319AA0A182A080001340034443402344B
:0A048000BA340034013400340034B3
:02400E00D73F9A
:00000001FF
